{
  "address": "0xD7082E2295F9A399A0d359eEa191D879A2f7bd30",
  "abi": [
    {
      "inputs": [
        {
          "internalType": "uint256",
          "name": "endingBetPeriodReward",
          "type": "uint256"
        },
        {
          "internalType": "uint256",
          "name": "bettingPeriodBlocksForPublicGames",
          "type": "uint256"
        },
        {
          "internalType": "uint256",
          "name": "minBetValueForPublicGames",
          "type": "uint256"
        }
      ],
      "stateMutability": "nonpayable",
      "type": "constructor"
    },
    {
      "inputs": [],
      "name": "AddParticipantsToPrivateGame",
      "type": "error"
    },
    {
      "inputs": [],
      "name": "BettingPeriodHasEnded",
      "type": "error"
    },
    {
      "inputs": [],
      "name": "BettingPeriodHasNotEnded",
      "type": "error"
    },
    {
      "inputs": [],
      "name": "GamePrivate",
      "type": "error"
    },
    {
      "inputs": [],
      "name": "InsufficientBalance",
      "type": "error"
    },
    {
      "inputs": [],
      "name": "InvalidNumber",
      "type": "error"
    },
    {
      "inputs": [],
      "name": "InvalidValue",
      "type": "error"
    },
    {
      "inputs": [],
      "name": "NoPrize",
      "type": "error"
    },
    {
      "inputs": [],
      "name": "PrizeAlreadyPaid",
      "type": "error"
    },
    {
      "inputs": [],
      "name": "TooManyPublicAvailableGames",
      "type": "error"
    },
    {
      "anonymous": false,
      "inputs": [
        {
          "indexed": true,
          "internalType": "uint256",
          "name": "gameId",
          "type": "uint256"
        },
        {
          "indexed": true,
          "internalType": "address",
          "name": "bettor",
          "type": "address"
        },
        {
          "indexed": true,
          "internalType": "uint8",
          "name": "number",
          "type": "uint8"
        },
        {
          "indexed": false,
          "internalType": "uint256",
          "name": "value",
          "type": "uint256"
        },
        {
          "indexed": false,
          "internalType": "uint256",
          "name": "timestamp",
          "type": "uint256"
        },
        {
          "indexed": false,
          "internalType": "uint256",
          "name": "betId",
          "type": "uint256"
        }
      ],
      "name": "BetPlaced",
      "type": "event"
    },
    {
      "anonymous": false,
      "inputs": [
        {
          "indexed": true,
          "internalType": "uint256",
          "name": "gameId",
          "type": "uint256"
        },
        {
          "indexed": true,
          "internalType": "uint8",
          "name": "drawnNumber",
          "type": "uint8"
        },
        {
          "indexed": true,
          "internalType": "address",
          "name": "closer",
          "type": "address"
        },
        {
          "indexed": false,
          "internalType": "uint256",
          "name": "reward",
          "type": "uint256"
        },
        {
          "indexed": false,
          "internalType": "uint256",
          "name": "timestamp",
          "type": "uint256"
        }
      ],
      "name": "EndOfBettingPeriod",
      "type": "event"
    },
    {
      "anonymous": false,
      "inputs": [
        {
          "indexed": true,
          "internalType": "uint256",
          "name": "gameId",
          "type": "uint256"
        },
        {
          "indexed": true,
          "internalType": "address",
          "name": "creator",
          "type": "address"
        },
        {
          "indexed": false,
          "internalType": "bool",
          "name": "isPrivate",
          "type": "bool"
        },
        {
          "indexed": false,
          "internalType": "uint256",
          "name": "timestamp",
          "type": "uint256"
        }
      ],
      "name": "GameCreated",
      "type": "event"
    },
    {
      "anonymous": false,
      "inputs": [
        {
          "indexed": true,
          "internalType": "uint256",
          "name": "gameId",
          "type": "uint256"
        },
        {
          "indexed": true,
          "internalType": "uint256",
          "name": "betId",
          "type": "uint256"
        },
        {
          "indexed": true,
          "internalType": "address",
          "name": "bettor",
          "type": "address"
        },
        {
          "indexed": false,
          "internalType": "address",
          "name": "requestedBy",
          "type": "address"
        },
        {
          "indexed": false,
          "internalType": "uint8",
          "name": "drawnNumber",
          "type": "uint8"
        },
        {
          "indexed": false,
          "internalType": "uint256",
          "name": "prizeValue",
          "type": "uint256"
        },
        {
          "indexed": false,
          "internalType": "uint256",
          "name": "timestamp",
          "type": "uint256"
        }
      ],
      "name": "PrizePayment",
      "type": "event"
    },
    {
      "inputs": [],
      "name": "BETTING_PERIOD_BLOCKS_FOR_PUBLIC_GAMES",
      "outputs": [
        {
          "internalType": "uint256",
          "name": "",
          "type": "uint256"
        }
      ],
      "stateMutability": "view",
      "type": "function"
    },
    {
      "inputs": [],
      "name": "ENDING_BET_PERIOD_REWARD",
      "outputs": [
        {
          "internalType": "uint256",
          "name": "",
          "type": "uint256"
        }
      ],
      "stateMutability": "view",
      "type": "function"
    },
    {
      "inputs": [],
      "name": "MIN_BET_VALUE_FOR_PUBLIC_GAMES",
      "outputs": [
        {
          "internalType": "uint256",
          "name": "",
          "type": "uint256"
        }
      ],
      "stateMutability": "view",
      "type": "function"
    },
    {
      "inputs": [],
      "name": "betCount",
      "outputs": [
        {
          "internalType": "uint256",
          "name": "",
          "type": "uint256"
        }
      ],
      "stateMutability": "view",
      "type": "function"
    },
    {
      "inputs": [
        {
          "internalType": "uint256",
          "name": "",
          "type": "uint256"
        }
      ],
      "name": "bets",
      "outputs": [
        {
          "internalType": "uint256",
          "name": "gameId",
          "type": "uint256"
        },
        {
          "internalType": "address",
          "name": "bettor",
          "type": "address"
        },
        {
          "internalType": "uint256",
          "name": "value",
          "type": "uint256"
        },
        {
          "internalType": "uint8",
          "name": "number",
          "type": "uint8"
        },
        {
          "internalType": "bool",
          "name": "prizeIsPaid",
          "type": "bool"
        }
      ],
      "stateMutability": "view",
      "type": "function"
    },
    {
      "inputs": [
        {
          "internalType": "uint256",
          "name": "bettingPeriodBlocks",
          "type": "uint256"
        },
        {
          "internalType": "uint256",
          "name": "minBetValue",
          "type": "uint256"
        },
        {
          "internalType": "address[]",
          "name": "participants",
          "type": "address[]"
        }
      ],
      "name": "createPrivateGame",
      "outputs": [],
      "stateMutability": "nonpayable",
      "type": "function"
    },
    {
      "inputs": [],
      "name": "createPublicGame",
      "outputs": [],
      "stateMutability": "nonpayable",
      "type": "function"
    },
    {
      "inputs": [],
      "name": "gameCount",
      "outputs": [
        {
          "internalType": "uint256",
          "name": "",
          "type": "uint256"
        }
      ],
      "stateMutability": "view",
      "type": "function"
    },
    {
      "inputs": [
        {
          "internalType": "uint256",
          "name": "",
          "type": "uint256"
        }
      ],
      "name": "games",
      "outputs": [
        {
          "internalType": "address",
          "name": "creator",
          "type": "address"
        },
        {
          "internalType": "uint256",
          "name": "totalValue",
          "type": "uint256"
        },
        {
          "internalType": "uint256",
          "name": "minEndingBlock",
          "type": "uint256"
        },
        {
          "internalType": "bytes32",
          "name": "combinedHash",
          "type": "bytes32"
        },
        {
          "internalType": "bool",
          "name": "bettingPeriodEnded",
          "type": "bool"
        },
        {
          "internalType": "uint8",
          "name": "drawnNumber",
          "type": "uint8"
        },
        {
          "internalType": "uint256",
          "name": "numberOfBets",
          "type": "uint256"
        },
        {
          "internalType": "uint256",
          "name": "valueProvidedToWinners",
          "type": "uint256"
        },
        {
          "internalType": "uint256",
          "name": "minBetValue",
          "type": "uint256"
        }
      ],
      "stateMutability": "view",
      "type": "function"
    },
    {
      "inputs": [
        {
          "internalType": "uint256",
          "name": "betId",
          "type": "uint256"
        }
      ],
      "name": "getBet",
      "outputs": [
        {
          "components": [
            {
              "internalType": "uint256",
              "name": "gameId",
              "type": "uint256"
            },
            {
              "internalType": "address",
              "name": "bettor",
              "type": "address"
            },
            {
              "internalType": "uint256",
              "name": "value",
              "type": "uint256"
            },
            {
              "internalType": "uint8",
              "name": "number",
              "type": "uint8"
            },
            {
              "internalType": "bool",
              "name": "prizeIsPaid",
              "type": "bool"
            }
          ],
          "internalType": "struct Critter.Bet",
          "name": "",
          "type": "tuple"
        }
      ],
      "stateMutability": "view",
      "type": "function"
    },
    {
      "inputs": [],
      "name": "getFirstCloseablePublicGame",
      "outputs": [
        {
          "internalType": "uint256",
          "name": "",
          "type": "uint256"
        }
      ],
      "stateMutability": "view",
      "type": "function"
    },
    {
      "inputs": [
        {
          "internalType": "uint256",
          "name": "gameId",
          "type": "uint256"
        }
      ],
      "name": "getGame",
      "outputs": [
        {
          "components": [
            {
              "internalType": "address",
              "name": "creator",
              "type": "address"
            },
            {
              "internalType": "address[]",
              "name": "participants",
              "type": "address[]"
            },
            {
              "internalType": "uint256",
              "name": "totalValue",
              "type": "uint256"
            },
            {
              "internalType": "uint256",
              "name": "minEndingBlock",
              "type": "uint256"
            },
            {
              "internalType": "bytes32",
              "name": "combinedHash",
              "type": "bytes32"
            },
            {
              "internalType": "uint256[25]",
              "name": "betsPerNumber",
              "type": "uint256[25]"
            },
            {
              "internalType": "bool",
              "name": "bettingPeriodEnded",
              "type": "bool"
            },
            {
              "internalType": "uint8",
              "name": "drawnNumber",
              "type": "uint8"
            },
            {
              "internalType": "uint256",
              "name": "numberOfBets",
              "type": "uint256"
            },
            {
              "internalType": "uint256",
              "name": "valueProvidedToWinners",
              "type": "uint256"
            },
            {
              "internalType": "uint256",
              "name": "minBetValue",
              "type": "uint256"
            }
          ],
          "internalType": "struct Critter.Game",
          "name": "",
          "type": "tuple"
        }
      ],
      "stateMutability": "view",
      "type": "function"
    },
    {
      "inputs": [
        {
          "internalType": "address",
          "name": "participant",
          "type": "address"
        }
      ],
      "name": "getPrivateGameInvitations",
      "outputs": [
        {
          "internalType": "uint256[]",
          "name": "",
          "type": "uint256[]"
        }
      ],
      "stateMutability": "view",
      "type": "function"
    },
    {
      "inputs": [
        {
          "internalType": "uint256",
          "name": "betId",
          "type": "uint256"
        }
      ],
      "name": "getPrize",
      "outputs": [
        {
          "internalType": "uint256",
          "name": "",
          "type": "uint256"
        }
      ],
      "stateMutability": "view",
      "type": "function"
    },
    {
      "inputs": [],
      "name": "getPublicAvailableGames",
      "outputs": [
        {
          "internalType": "uint256[]",
          "name": "",
          "type": "uint256[]"
        }
      ],
      "stateMutability": "view",
      "type": "function"
    },
    {
      "inputs": [
        {
          "internalType": "uint256",
          "name": "gameId",
          "type": "uint256"
        },
        {
          "internalType": "uint8",
          "name": "number",
          "type": "uint8"
        }
      ],
      "name": "placeBet",
      "outputs": [],
      "stateMutability": "payable",
      "type": "function"
    },
    {
      "inputs": [
        {
          "internalType": "address",
          "name": "",
          "type": "address"
        },
        {
          "internalType": "uint256",
          "name": "",
          "type": "uint256"
        }
      ],
      "name": "privateGamesInvitations",
      "outputs": [
        {
          "internalType": "uint256",
          "name": "",
          "type": "uint256"
        }
      ],
      "stateMutability": "view",
      "type": "function"
    },
    {
      "inputs": [
        {
          "internalType": "uint256",
          "name": "",
          "type": "uint256"
        }
      ],
      "name": "publicAvailableGames",
      "outputs": [
        {
          "internalType": "uint256",
          "name": "",
          "type": "uint256"
        }
      ],
      "stateMutability": "view",
      "type": "function"
    },
    {
      "inputs": [],
      "name": "publicAvailableGamesCount",
      "outputs": [
        {
          "internalType": "uint256",
          "name": "",
          "type": "uint256"
        }
      ],
      "stateMutability": "view",
      "type": "function"
    },
    {
      "inputs": [
        {
          "internalType": "uint256",
          "name": "betId",
          "type": "uint256"
        }
      ],
      "name": "requestPrizePayment",
      "outputs": [],
      "stateMutability": "nonpayable",
      "type": "function"
    },
    {
      "inputs": [
        {
          "internalType": "uint256",
          "name": "gameId",
          "type": "uint256"
        }
      ],
      "name": "timeLeft",
      "outputs": [
        {
          "internalType": "uint256",
          "name": "",
          "type": "uint256"
        }
      ],
      "stateMutability": "view",
      "type": "function"
    },
    {
      "stateMutability": "payable",
      "type": "receive"
    }
  ],
  "transactionHash": "0xf02488635ba09a316ff7022f4c3bf56f8183e2042e467759833e5b2fd1e310a3",
  "args": [
    "2000000000000000",
    1000,
    "1000000000000000"
  ],
  "numDeployments": 3,
  "solcInputHash": "658a4ec4f6bab7c27c73761cb2ed7f57",
  "bytecode": "0x60e06040526000600c556000600d556000600e5534801561001f57600080fd5b50604051611cb4380380611cb483398101604081905261003e9161004f565b60809290925260a05260c05261007d565b60008060006060848603121561006457600080fd5b8351925060208401519150604084015190509250925092565b60805160a05160c051611be56100cf6000396000818161046a01526110ca01526000818161049e01526110a801526000818161057f015281816112d60152818161147801526114a30152611be56000f3fe60806040526004361061012e5760003560e01c80637657815a116100ab578063b76dbac91161006f578063b76dbac914610522578063ccf5713e14610537578063cf09449714610557578063d0ec64b21461056d578063e75843db146105a1578063eba3071b146105c157600080fd5b80637657815a146104585780637c3a94261461048c578063a1099bf2146104c0578063a2f77bcc146104e0578063afdc26f31461050d57600080fd5b806347cb7a68116100f257806347cb7a68146103c057806348cd2dbc146103e05780634cab0cbc146104005780634d1975b41461042257806365e0113f1461043857600080fd5b806303edf9141461013a578063061e494f1461014f578063117a5b90146102495780631a0af5fb1461030e57806322af00fa1461033257600080fd5b3661013557005b600080fd5b61014d6101483660046117a3565b6105e1565b005b34801561015b57600080fd5b506101f561016a3660046117d9565b6040805160a08101825260008082526020820181905291810182905260608101829052608081019190915250600090815260016020818152604092839020835160a08101855281548152928101546001600160a01b03169183019190915260028101549282019290925260039091015460ff8082166060840152610100909104161515608082015290565b6040516102409190815181526020808301516001600160a01b0316908201526040808301519082015260608083015160ff169082015260809182015115159181019190915260a00190565b60405180910390f35b34801561025557600080fd5b506102bd6102643660046117d9565b60006020818152918152604090208054600282015460038301546004840154601e850154601f860154968601546021909601546001600160a01b039095169693959294919360ff80831694610100909304169290919089565b604080516001600160a01b03909a168a5260208a0198909852968801959095526060870193909352901515608086015260ff1660a085015260c084015260e083015261010082015261012001610240565b34801561031a57600080fd5b50610324600e5481565b604051908152602001610240565b34801561033e57600080fd5b5061038b61034d3660046117d9565b600160208190526000918252604090912080549181015460028201546003909201546001600160a01b03909116919060ff8082169161010090041685565b604080519586526001600160a01b0390941660208601529284019190915260ff1660608301521515608082015260a001610240565b3480156103cc57600080fd5b506103246103db3660046117d9565b610a0a565b3480156103ec57600080fd5b506103246103fb36600461180e565b610a43565b34801561040c57600080fd5b50610415610a74565b6040516102409190611838565b34801561042e57600080fd5b50610324600c5481565b34801561044457600080fd5b5061014d6104533660046117d9565b610b16565b34801561046457600080fd5b506103247f000000000000000000000000000000000000000000000000000000000000000081565b34801561049857600080fd5b506103247f000000000000000000000000000000000000000000000000000000000000000081565b3480156104cc57600080fd5b506103246104db3660046117d9565b610d26565b3480156104ec57600080fd5b506105006104fb3660046117d9565b610d53565b60405161024091906118e3565b34801561051957600080fd5b50610324610e80565b34801561052e57600080fd5b5061014d611027565b34801561054357600080fd5b50610415610552366004611995565b6110f3565b34801561056357600080fd5b50610324600d5481565b34801561057957600080fd5b506103247f000000000000000000000000000000000000000000000000000000000000000081565b3480156105ad57600080fd5b506103246105bc3660046117d9565b61115f565b3480156105cd57600080fd5b5061014d6105dc3660046119c6565b611176565b6000828152602081905260409020601e81015460ff161561061557604051632f8419b560e01b815260040160405180910390fd5b6004810154610625600143611ab6565b40604051602001610640929190918252602082015260400190565b60408051601f19818403018152919052805160209091012060048201556003810154431061080857604080516101608101825282546001600160a01b0316815260018301805483516020828102820181019095528181526107829486938186019390918301828280156106dc57602002820191906000526020600020905b81546001600160a01b031681526001909101906020018083116106be575b505050918352505060028201546020820152600382015460408083019190915260048301546060830152805161032081019182905260809092019190600584019060199082845b815481526020019060010190808311610723575050509183525050601e82015460ff8082161515602080850191909152610100909204166040830152601f8301546060830152820154608082015260219091015460a090910152611231565b15610808576000610794600143611ab6565b40905060ff8116600f80831690600484901c168082036107c1576107b8858861128a565b50505050505050565b60006107ce600243611ab6565b40905060ff8116600f80831690600484901c168082036107ff576107f2898c61128a565b5050505050505050505050565b50505050505050505b60018101541561089a576000805b600183015481101561087657336001600160a01b031683600101828154811061084157610841611ac9565b6000918252602090912001546001600160a01b0316036108645760019150610876565b8061086e81611adf565b915050610816565b508061089857604051600162ec28ff60e01b0319815260040160405180910390fd5b505b60018260ff1610806108af575060198260ff16115b156108cd576040516374cbd35f60e01b815260040160405180910390fd5b80602101543410156108f257604051632a9ffab760e21b815260040160405180910390fd5b3460058201610902600185611af8565b60ff166019811061091557610915611ac9565b0160008282546109259190611b11565b92505081905550348160020160008282546109409190611b11565b9091555050601f8101805490600061095783611adf565b91905055506000600d6000815461096d90611adf565b918290555060008181526001602081815260409283902088815591820180546001600160a01b03191633908117909155346002840181905560038401805461ffff191660ff8b16908117909155855191825242938201939093529384018590529394509092909187907f5b70029c2661c4a9199ccdd6b370f084615aa3e33d2327ed901579b698ab5a329060600160405180910390a45050505050565b600081815260208190526040812060038101544310610a2c5750600092915050565b438160030154610a3c9190611ab6565b9392505050565b600f6020528160005260406000208181548110610a5f57600080fd5b90600052602060002001600091509150505481565b60606000600e5467ffffffffffffffff811115610a9357610a936119b0565b604051908082528060200260200182016040528015610abc578160200160208202803683370190505b50905060005b600e54811015610b1057600281600a8110610adf57610adf611ac9565b0154828281518110610af357610af3611ac9565b602090810291909101015280610b0881611adf565b915050610ac2565b50919050565b60008181526001602090815260408083208054845291839052909120601e81015460ff16610b5757604051632350859f60e01b815260040160405180910390fd5b6003820154610100900460ff1615610b8257604051630d82e31560e21b815260040160405180910390fd5b6000610b8e8284611414565b905080600003610bb15760405163273b4b7760e01b815260040160405180910390fd5b47600082821015610bc25781610bc4565b825b905080600003610be757604051631e9acf1760e31b815260040160405180910390fd5b60038501805461ff001916610100179055602084018054849190600090610c0f908490611b11565b9091555050600185015485546001600160a01b039091169087907fbdb79145d29ea084d5d9824a844a953c43f48602fd33f8aa533d3a366622c95c33610c54896114f2565b604080516001600160a01b03909316835260ff9091166020830152810186905242606082015260800160405180910390a460018501546040516000916001600160a01b03169083908381818185875af1925050503d8060008114610cd4576040519150601f19603f3d011682016040523d82523d6000602084013e610cd9565b606091505b50509050806107b85760405162461bcd60e51b81526020600482015260146024820152734661696c656420746f2073656e64207072697a6560601b60448201526064015b60405180910390fd5b600081815260016020908152604080832080548452918390528220610d4b8183611414565b949350505050565b610d5b611699565b6000828152602081815260409182902082516101608101845281546001600160a01b0316815260018201805485518186028101860190965280865291949293858101939290830182828015610dd957602002820191906000526020600020905b81546001600160a01b03168152600190910190602001808311610dbb575b505050918352505060028201546020820152600382015460408083019190915260048301546060830152805161032081019182905260809092019190600584019060199082845b815481526020019060010190808311610e20575050509183525050601e82015460ff8082161515602080850191909152610100909204166040830152601f8301546060830152820154608082015260219091015460a09091015292915050565b600043815b600e5481101561101e576000806000600284600a8110610ea757610ea7611ac9565b01548152602080820192909252604090810160002081516101608101835281546001600160a01b031681526001820180548451818702810187019095528085529194929385840193909290830182828015610f2b57602002820191906000526020600020905b81546001600160a01b03168152600190910190602001808311610f0d575b505050918352505060028201546020820152600382015460408083019190915260048301546060830152805161032081019182905260809092019190600584019060199082845b815481526020019060010190808311610f72575050509183525050601e82015460ff8082161515602080850191909152610100909204166040830152601f83015460608084019190915290830154608083015260219092015460a09091015281015190915083118015610fe95750610fe981611231565b1561100b57600282600a811061100157611001611ac9565b0154935050505090565b508061101681611adf565b915050610e85565b50600091505090565b6000600c6000815461103890611adf565b9190508190559050600a600e5410611063576040516305cb66f160e41b815260040160405180910390fd5b806002600e54600a811061107957611079611ac9565b0155600e805490600061108b83611adf565b9091555050604080516000808252602082019092526110f09183917f0000000000000000000000000000000000000000000000000000000000000000917f0000000000000000000000000000000000000000000000000000000000000000919061152e565b50565b6001600160a01b0381166000908152600f602090815260409182902080548351818402810184019094528084526060939283018282801561115357602002820191906000526020600020905b81548152602001906001019080831161113f575b50505050509050919050565b600281600a811061116f57600080fd5b0154905081565b80516000036111985760405163efec0aad60e01b815260040160405180910390fd5b6000600c600081546111a990611adf565b9182905550905060005b825181101561121c57600f60008483815181106111d2576111d2611ac9565b6020908102919091018101516001600160a01b031682528181019290925260400160009081208054600181018255908252919020018290558061121481611adf565b9150506111b3565b5061122b81858585600161152e565b50505050565b6000805b60198160ff161015611281578260a001518160ff166019811061125a5761125a611ac9565b602002015160000361126f5750600092915050565b8061127981611b24565b915050611235565b50600192915050565b611293826114f2565b601e83018054600161ffff1990911661010060ff949094169390930260ff191692909217821790558201546000036112ce576112ce816115f2565b60006112fa347f0000000000000000000000000000000000000000000000000000000000000000611b11565b90504760008282101561130d578161130f565b825b90508060000361133257604051631e9acf1760e31b815260040160405180910390fd5b601e850154604080518381524260208201523392610100900460ff169187917ffa5d76c157d72b89243e69c6d822c0db9b3c07ca53ec4bdc9b01f3ab6a4d859e910160405180910390a4604051600090339083908381818185875af1925050503d80600081146113be576040519150601f19603f3d011682016040523d82523d6000602084013e6113c3565b606091505b505090508061140c5760405162461bcd60e51b815260206004820152601560248201527411985a5b1959081d1bc81cd95b99081c995dd85c99605a1b6044820152606401610d1d565b505050505050565b600080611420846114f2565b9050600060058501611433600184611af8565b60ff166019811061144657611446611ac9565b015490508015806114615750600384015460ff838116911614155b15611471576000925050506114ec565b60028501547f00000000000000000000000000000000000000000000000000000000000000008111156114cb576114c87f000000000000000000000000000000000000000000000000000000000000000082611ab6565b90505b818560020154826114dc9190611b43565b6114e69190611b70565b93505050505b92915050565b601e81015460009060ff16156115125750601e0154610100900460ff1690565b600482015480611523601982611b84565b610d4b906001611b11565b60008581526020818152604090912080546001600160a01b031916331781558351909161156291600184019186019061170a565b50600060028201556115748543611b11565b6003820155600060048201819055601e8201805460ff19169055601f8201819055602082015560218101849055604051339087907ff75dcff0798fc2440e63d7d9996f16e567400bb9ebf7ae51671aff2471553e35906115e290869042909115158252602082015260400190565b60405180910390a3505050505050565b60005b600e548110156116955781600282600a811061161357611613611ac9565b01540361168357600e805490600061162a83611b98565b9190505550600e54811015611666576002600e54600a811061164e5761164e611ac9565b0154600282600a811061166357611663611ac9565b01555b60006002600e54600a811061167d5761167d611ac9565b01555050565b8061168d81611adf565b9150506115f5565b5050565b60405180610160016040528060006001600160a01b03168152602001606081526020016000815260200160008152602001600080191681526020016116dc61176f565b8152602001600015158152602001600060ff1681526020016000815260200160008152602001600081525090565b82805482825590600052602060002090810192821561175f579160200282015b8281111561175f57825182546001600160a01b0319166001600160a01b0390911617825560209092019160019091019061172a565b5061176b92915061178e565b5090565b6040518061032001604052806019906020820280368337509192915050565b5b8082111561176b576000815560010161178f565b600080604083850312156117b657600080fd5b82359150602083013560ff811681146117ce57600080fd5b809150509250929050565b6000602082840312156117eb57600080fd5b5035919050565b80356001600160a01b038116811461180957600080fd5b919050565b6000806040838503121561182157600080fd5b61182a836117f2565b946020939093013593505050565b6020808252825182820181905260009190848201906040850190845b8181101561187057835183529284019291840191600101611854565b50909695505050505050565b600081518084526020808501945080840160005b838110156118b55781516001600160a01b031687529582019590820190600101611890565b509495945050505050565b8060005b601981101561122b5781518452602093840193909101906001016118c4565b602081526118fd6020820183516001600160a01b03169052565b6000602083015161046080604085015261191b61048085018361187c565b91506040850151606085015260608501516080850152608085015160a085015260a085015161194d60c08601826118c0565b5060c085015115156103e085015260e085015160ff16610400850152610100850151610420850152610120850151610440850152610140909401519390920192909252919050565b6000602082840312156119a757600080fd5b610a3c826117f2565b634e487b7160e01b600052604160045260246000fd5b6000806000606084860312156119db57600080fd5b833592506020808501359250604085013567ffffffffffffffff80821115611a0257600080fd5b818701915087601f830112611a1657600080fd5b813581811115611a2857611a286119b0565b8060051b604051601f19603f83011681018181108582111715611a4d57611a4d6119b0565b60405291825284820192508381018501918a831115611a6b57600080fd5b938501935b82851015611a9057611a81856117f2565b84529385019392850192611a70565b8096505050505050509250925092565b634e487b7160e01b600052601160045260246000fd5b818103818111156114ec576114ec611aa0565b634e487b7160e01b600052603260045260246000fd5b600060018201611af157611af1611aa0565b5060010190565b60ff82811682821603908111156114ec576114ec611aa0565b808201808211156114ec576114ec611aa0565b600060ff821660ff8103611b3a57611b3a611aa0565b60010192915050565b80820281158282048414176114ec576114ec611aa0565b634e487b7160e01b600052601260045260246000fd5b600082611b7f57611b7f611b5a565b500490565b600082611b9357611b93611b5a565b500690565b600081611ba757611ba7611aa0565b50600019019056fea2646970667358221220418244f349a505f4d1da860ecd50f435875a08c144c172ec2a5227cc9d3232e764736f6c63430008140033",
  "devdoc": {
    "kind": "dev",
    "methods": {
      "createPrivateGame(uint256,uint256,address[])": {
        "params": {
          "bettingPeriodBlocks": "The number of blocks for the betting period",
          "minBetValue": "The minimum bet value",
          "participants": "The participants of the private game"
        }
      },
      "getBet(uint256)": {
        "params": {
          "betId": "The bet id"
        },
        "returns": {
          "_0": "The bet object"
        }
      },
      "getFirstCloseablePublicGame()": {
        "returns": {
          "_0": "The game id"
        }
      },
      "getGame(uint256)": {
        "params": {
          "gameId": "The game id"
        },
        "returns": {
          "_0": "The game object"
        }
      },
      "getPrivateGameInvitations(address)": {
        "params": {
          "participant": "The participant address"
        },
        "returns": {
          "_0": "The games ids"
        }
      },
      "getPrize(uint256)": {
        "params": {
          "betId": "The bet id"
        },
        "returns": {
          "_0": "The prize value in wei"
        }
      },
      "getPublicAvailableGames()": {
        "returns": {
          "_0": "The games ids"
        }
      },
      "placeBet(uint256,uint8)": {
        "params": {
          "gameId": "The game id",
          "number": "The number the bettor bet on, between 1 and 25"
        }
      },
      "requestPrizePayment(uint256)": {
        "params": {
          "betId": "The bet id"
        }
      },
      "timeLeft(uint256)": {
        "params": {
          "gameId": "The game id"
        },
        "returns": {
          "_0": "The time left in blocks"
        }
      }
    },
    "version": 1
  },
  "userdoc": {
    "kind": "user",
    "methods": {
      "createPrivateGame(uint256,uint256,address[])": {
        "notice": "Create a private game, only accessible by the participants. The private game might have custom bettingPeriodBlocks and minBetValue."
      },
      "createPublicGame()": {
        "notice": "Create a public game"
      },
      "getBet(uint256)": {
        "notice": "Get a bet"
      },
      "getFirstCloseablePublicGame()": {
        "notice": "Get the first closeable public game"
      },
      "getGame(uint256)": {
        "notice": "Get a game"
      },
      "getPrivateGameInvitations(address)": {
        "notice": "Get the private game invitations of a participant"
      },
      "getPrize(uint256)": {
        "notice": "Get the prize value of a bet"
      },
      "getPublicAvailableGames()": {
        "notice": "Get the public available games"
      },
      "placeBet(uint256,uint8)": {
        "notice": "Place a bet"
      },
      "requestPrizePayment(uint256)": {
        "notice": "Request the prize payment of a bet"
      },
      "timeLeft(uint256)": {
        "notice": "Get the time left for a game to reach the minimum ending block"
      }
    },
    "version": 1
  },
  "storageLayout": {
    "storage": [
      {
        "astId": 126,
        "contract": "contracts/Critter.sol:Critter",
        "label": "games",
        "offset": 0,
        "slot": "0",
        "type": "t_mapping(t_uint256,t_struct(Game)58_storage)"
      },
      {
        "astId": 131,
        "contract": "contracts/Critter.sol:Critter",
        "label": "bets",
        "offset": 0,
        "slot": "1",
        "type": "t_mapping(t_uint256,t_struct(Bet)69_storage)"
      },
      {
        "astId": 135,
        "contract": "contracts/Critter.sol:Critter",
        "label": "publicAvailableGames",
        "offset": 0,
        "slot": "2",
        "type": "t_array(t_uint256)10_storage"
      },
      {
        "astId": 138,
        "contract": "contracts/Critter.sol:Critter",
        "label": "gameCount",
        "offset": 0,
        "slot": "12",
        "type": "t_uint256"
      },
      {
        "astId": 141,
        "contract": "contracts/Critter.sol:Critter",
        "label": "betCount",
        "offset": 0,
        "slot": "13",
        "type": "t_uint256"
      },
      {
        "astId": 144,
        "contract": "contracts/Critter.sol:Critter",
        "label": "publicAvailableGamesCount",
        "offset": 0,
        "slot": "14",
        "type": "t_uint256"
      },
      {
        "astId": 149,
        "contract": "contracts/Critter.sol:Critter",
        "label": "privateGamesInvitations",
        "offset": 0,
        "slot": "15",
        "type": "t_mapping(t_address,t_array(t_uint256)dyn_storage)"
      }
    ],
    "types": {
      "t_address": {
        "encoding": "inplace",
        "label": "address",
        "numberOfBytes": "20"
      },
      "t_array(t_address)dyn_storage": {
        "base": "t_address",
        "encoding": "dynamic_array",
        "label": "address[]",
        "numberOfBytes": "32"
      },
      "t_array(t_uint256)10_storage": {
        "base": "t_uint256",
        "encoding": "inplace",
        "label": "uint256[10]",
        "numberOfBytes": "320"
      },
      "t_array(t_uint256)25_storage": {
        "base": "t_uint256",
        "encoding": "inplace",
        "label": "uint256[25]",
        "numberOfBytes": "800"
      },
      "t_array(t_uint256)dyn_storage": {
        "base": "t_uint256",
        "encoding": "dynamic_array",
        "label": "uint256[]",
        "numberOfBytes": "32"
      },
      "t_bool": {
        "encoding": "inplace",
        "label": "bool",
        "numberOfBytes": "1"
      },
      "t_bytes32": {
        "encoding": "inplace",
        "label": "bytes32",
        "numberOfBytes": "32"
      },
      "t_mapping(t_address,t_array(t_uint256)dyn_storage)": {
        "encoding": "mapping",
        "key": "t_address",
        "label": "mapping(address => uint256[])",
        "numberOfBytes": "32",
        "value": "t_array(t_uint256)dyn_storage"
      },
      "t_mapping(t_uint256,t_struct(Bet)69_storage)": {
        "encoding": "mapping",
        "key": "t_uint256",
        "label": "mapping(uint256 => struct Critter.Bet)",
        "numberOfBytes": "32",
        "value": "t_struct(Bet)69_storage"
      },
      "t_mapping(t_uint256,t_struct(Game)58_storage)": {
        "encoding": "mapping",
        "key": "t_uint256",
        "label": "mapping(uint256 => struct Critter.Game)",
        "numberOfBytes": "32",
        "value": "t_struct(Game)58_storage"
      },
      "t_struct(Bet)69_storage": {
        "encoding": "inplace",
        "label": "struct Critter.Bet",
        "members": [
          {
            "astId": 60,
            "contract": "contracts/Critter.sol:Critter",
            "label": "gameId",
            "offset": 0,
            "slot": "0",
            "type": "t_uint256"
          },
          {
            "astId": 62,
            "contract": "contracts/Critter.sol:Critter",
            "label": "bettor",
            "offset": 0,
            "slot": "1",
            "type": "t_address"
          },
          {
            "astId": 64,
            "contract": "contracts/Critter.sol:Critter",
            "label": "value",
            "offset": 0,
            "slot": "2",
            "type": "t_uint256"
          },
          {
            "astId": 66,
            "contract": "contracts/Critter.sol:Critter",
            "label": "number",
            "offset": 0,
            "slot": "3",
            "type": "t_uint8"
          },
          {
            "astId": 68,
            "contract": "contracts/Critter.sol:Critter",
            "label": "prizeIsPaid",
            "offset": 1,
            "slot": "3",
            "type": "t_bool"
          }
        ],
        "numberOfBytes": "128"
      },
      "t_struct(Game)58_storage": {
        "encoding": "inplace",
        "label": "struct Critter.Game",
        "members": [
          {
            "astId": 34,
            "contract": "contracts/Critter.sol:Critter",
            "label": "creator",
            "offset": 0,
            "slot": "0",
            "type": "t_address"
          },
          {
            "astId": 37,
            "contract": "contracts/Critter.sol:Critter",
            "label": "participants",
            "offset": 0,
            "slot": "1",
            "type": "t_array(t_address)dyn_storage"
          },
          {
            "astId": 39,
            "contract": "contracts/Critter.sol:Critter",
            "label": "totalValue",
            "offset": 0,
            "slot": "2",
            "type": "t_uint256"
          },
          {
            "astId": 41,
            "contract": "contracts/Critter.sol:Critter",
            "label": "minEndingBlock",
            "offset": 0,
            "slot": "3",
            "type": "t_uint256"
          },
          {
            "astId": 43,
            "contract": "contracts/Critter.sol:Critter",
            "label": "combinedHash",
            "offset": 0,
            "slot": "4",
            "type": "t_bytes32"
          },
          {
            "astId": 47,
            "contract": "contracts/Critter.sol:Critter",
            "label": "betsPerNumber",
            "offset": 0,
            "slot": "5",
            "type": "t_array(t_uint256)25_storage"
          },
          {
            "astId": 49,
            "contract": "contracts/Critter.sol:Critter",
            "label": "bettingPeriodEnded",
            "offset": 0,
            "slot": "30",
            "type": "t_bool"
          },
          {
            "astId": 51,
            "contract": "contracts/Critter.sol:Critter",
            "label": "drawnNumber",
            "offset": 1,
            "slot": "30",
            "type": "t_uint8"
          },
          {
            "astId": 53,
            "contract": "contracts/Critter.sol:Critter",
            "label": "numberOfBets",
            "offset": 0,
            "slot": "31",
            "type": "t_uint256"
          },
          {
            "astId": 55,
            "contract": "contracts/Critter.sol:Critter",
            "label": "valueProvidedToWinners",
            "offset": 0,
            "slot": "32",
            "type": "t_uint256"
          },
          {
            "astId": 57,
            "contract": "contracts/Critter.sol:Critter",
            "label": "minBetValue",
            "offset": 0,
            "slot": "33",
            "type": "t_uint256"
          }
        ],
        "numberOfBytes": "1088"
      },
      "t_uint256": {
        "encoding": "inplace",
        "label": "uint256",
        "numberOfBytes": "32"
      },
      "t_uint8": {
        "encoding": "inplace",
        "label": "uint8",
        "numberOfBytes": "1"
      }
    }
  }
}